:020000040000FA
:10000000109E012099020000A1020000A30200003E
:10001000A5020000A7020000A902000000000000E5
:10002000000000000000000000000000AB02000023
:10003000AD02000000000000AF020000B1020000AD
:100040002120000035200000492000005D20000034
:10005000712000008520000099200000AD200000E4
:10006000C1200000D5200000E9200000FD20000094
:100070001121000025210000392100004D21000040
:100080006121000075210000892100009D210000F0
:10009000B1210000C5210000D9210000ED210000A0
:1000A0000122000015220000292200003D2200004C
:1000B0005122000065220000792200008D220000FC
:1000C000A1220000B5220000C9220000DD220000AC
:1000D000F122000005230000192300002D23000059
:1000E0004123000055230000692300007D23000008
:1000F00091230000A5230000B9230000CD230000B8
:10010000E1230000F5230000092400001D24000065
:100110003124000045240000592400006D24000013
:100120008124000095240000A9240000BD240000C3
:10013000D1240000E5240000F92400000D25000072
:100140002125000035250000492500005D2500001F
:10015000712500008525000099250000AD250000CF
:10016000C1250000D5250000E9250000FD2500007F
:100170001126000025260000392600004D2600002B
:100180006126000075260000892600009D260000DB
:10019000B1260000C5260000D9260000ED2600008B
:1001A0000127000015270000292700003D27000037
:1001B0005127000065270000792700008D270000E7
:1001C000A1270000B5270000C9270000DD27000097
:1001D000F127000005280000192800002D28000044
:1001E0004128000055280000692800007D280000F3
:1001F00091280000A5280000B9280000CD280000A3
:10020000E1280000F5280000092900001D29000050
:100210003129000045290000592900006D290000FE
:100220008129000095290000A9290000BD290000AE
:10023000D1290000E5290000F92900000D2A00005D
:10024000212A0000552B0000AD2F0000893300004B
:1002500089360000153A0000A53D00000540000069
:100260008543000009470000A1490000FD4C000043
:1002700005500000C9520000A5550000C9570000F4
:10028000DFF810D000F06CFC00480047EDD400000F
:10029000AFF30080109E01200648804706480047C3
:1002A000FEE7FEE7FEE7FEE7FEE7FEE7FEE7FEE726
:1002B000FEE7FEE709AB0000810200002DE9F05FD8
:1002C0000546002092469B468846064681464024C5
:1002D0001BE0284641464746224600F072FB534643
:1002E0005A46C01A914110D311461846224600F0D2
:1002F00059FB2D1A67EB01084F46224601200021C9
:1003000000F050FB17EB00094E41201EA4F1010440
:10031000DFDC484631462A464346BDE8F09F40EAC6
:1003200001039B0703D009E008C9121F08C0042A73
:10033000FAD203E011F8013B00F8013B521EF9D25A
:100340007047D2B201E000F8012B491EFBD2704782
:100350000022F6E710B513460A4604461946FFF791
:10036000F0FF204610BD30B504460020034600E0F3
:100370005B1C934203D2E05CCD5C401BF8D030BDE7
:1003800080EA010210B502F00043400022D04A008A
:100390001FD0010E01EB1261C0F35600C2F35602EA
:1003A00040F4000042F40002A0FB022000047F3968
:1003B000140400D0401C50EA124001D44000491EF1
:1003C000C2B20C0604EBD010401C4008802A02D0B8
:1003D00003E0002010BD20F00100002900DA002019
:1003E000184310BD420005D0C0F3C752524291429B
:1003F00001DC0020704700EBC15070477047704728
:10040000BFFFDFFFFFFFFFFFFFFFFFFFFFFFFFFF5C
:10041000FFFFFFFFFFFFFFFFFFFFFFFFFFFFFFFFEC
:10042000FFFFFFFFFFFFFFFFFFFFFFFFFFFFFFFFDC
:10043000FFFFFFFFFFFFFFFFFFFFFFFFFFFFFFFFCC
:10044000FFFFFFFFFFFFFFFFFFFFFFFFFFFFFFFFBC
:10045000FFFFFFFFFFFFFFFFFFFFFFFFFFFFFFFFAC
:10046000F0B480EA0102D40F4200B2EB410F02D295
:100470000246084611464A0042D0C30DDDB2C1F320
:10048000C752AD1A202D35DAC1F3160141F400022E
:1004900004B15242C5F1200602FA06F12A41104485
:1004A000B3EBD05F23D0C4B1012DA0EBC35009DC66
:1004B000F0BC4FF0004202EAC352DBB200F500008C
:1004C00000F0AABA400000F1807000EBC350A0F128
:1004D000807040EAD170490009E0490841EAC071E2
:1004E000A0EBC35000F50000400800EBC350F0BC87
:1004F00000F089BA6142012202EB4101001BF6E7DC
:10050000F0BC704781F00041AAE780F00040A7E707
:1005100030B480EA010202F0004530F0004221F0E0
:10052000004013D090B1C30DD40DC2F31601C0F337
:100530001600E41A41F4000140F400027D349142B7
:1005400001D3641C00E04900002C02DA30BC00201A
:1005500070474FF400000023914201D3891A0343EE
:1005600040084FEA4101F7D151B1914202D14FF019
:10057000004105E002D24FF0010101E06FF00101FE
:1005800003EBC450284430BC00F03DBA2DE9FE4FC7
:10059000804681EA0300C00F0C46009021F0004124
:1005A00023F00045B8EB0200A94105D240462146A0
:1005B00090461C460B46024623F00040104347D0AD
:1005C000270DC7F30A00C3F30A510290401A0190A5
:1005D00040286BDAC3F3130040F4801B0098924666
:1005E00020B10023D2EB030A63EB0B0B01985946B1
:1005F000C0F14002504600F0D5F906460D4650467F
:100600005946019A00F0EDF910EB08006141002411
:1006100087EA115284EAE7731A4340D0009A62B322
:10062000019A012A4FEA075215DC001B61EB020117
:100630004FF0004202EA0752CDE90042001C41F5AA
:10064000801132462B4600F024FA03B0BDE8F08F4B
:1006500040462146F9E7001B61EB0201001C41F511
:10066000801300185B412018A2F5001747EB030127
:1006700040EAD570B6196D4111E06D084FEA3606B3
:1006800045EAC0754FEA0752001B61EB0201001CEE
:1006900041F5801149084FEA3000001951413246B6
:1006A0002B4603B0BDE8F04F00F0E4B900980122FA
:1006B00040000023D0EB020263EBE0730098214678
:1006C0004FEAE074B8EB000061EB0401E9E783F066
:1006D00000435BE781F0004158E72DE9FE4F81EAD6
:1006E000030404F0004421F0004100944FF0000B9B
:1006F00023F0004350EA01045ED052EA03045BD0C9
:10070000C3F30A54C1F30A552C44A4F2F334019400
:10071000A0FB0254C1F3130141F48011C3F313038E
:1007200043F4801301FB024400FB034E840A970A42
:1007300044EA815447EA8357A4FB076802958D0A6F
:1007400005FB07854FEA932C04FB0C542705029DFB
:100750004FEA065847EA1637B5EB08056EEB070C6B
:10076000870E920E47EA811742EA8312A7FB020125
:10077000B6EB0B0164EB00042B0D43EA0C335E185F
:1007800044EB1C50DA465146E7FB0201C5F3130463
:100790004FEA0B3343EA14534FEA0432019C43EA15
:1007A0000603A4F10C040294009CCDE900B400F00F
:1007B00070F903B0BDE8F08F00200146F9E72DE99C
:1007C000F04D81EA030404F0004B21F0004514468B
:1007D0004FF0000A23F0004150EA050220D054EA0D
:1007E00001021DD0C5F30A570246C5F31303C1F336
:1007F0001300C1F30A5640F4801543F48013A7EBAD
:100800000608101BD64608F2FD3873EB050002D32C
:1008100008F1010801E092185B41B8F1000F03DA1A
:1008200000200146BDE8F08D00204FF480110646FF
:1008300084460EE0171B73EB050705D3121B63EB11
:10084000050306434CEA010C49084FEA30009218B0
:100850005B4150EA0107EDD152EA030012D082EA6F
:10086000040083EA0501084305D0101BAB4106D202
:100870000122002306E000224FF0004302E06FF067
:10088000010253101AEB06004CEB085110EB0A0062
:1008900041EB0B01BDE8F04D00F0ECB8C10F80EA70
:1008A000E0700844CA079623002100F0B5B89623EB
:1008B0000022114600F0B0B80EB540F2334102916B
:1008C0000021CDE900110A460B4600F0E2F803B022
:1008D00000BD0EB540F2334202920022CDE9002263
:1008E000134600F0D6F803B000BD00F0004230F02F
:1008F00000400AD0C10D01F56071C0F3160042EA54
:100900000151C2084007114370470020014670475B
:1009100030B5041E71F1000404DB4FF00044404286
:1009200064EB0101141E73F1000405DB1C464FF05B
:100930000043524263EB0403994208BF904230BD2A
:1009400001F0004330B421F0004150EA010206D02A
:100950000A0DA2F56072C1F31301002A02DC30BC5B
:1009600000207047440F44EAC104C100E01830BCC5
:1009700000EBC25000F047B830B50B4601460020EE
:100980002022012409E021FA02F59D4205D303FA51
:1009900002F5491B04FA02F52844151EA2F10102D2
:1009A000F1DC30BD202A04DB203A00FA02F10020FD
:1009B00070479140C2F1200320FA03F3194390409D
:1009C0007047202A04DB203A21FA02F00021704708
:1009D00021FA02F3D040C2F12002914008431946A7
:1009E0007047202A06DBCB17203A41FA02F043EA8F
:1009F000E07306E041FA02F3D040C2F120029140D8
:100A00000843194670470029A8BF7047401C490099
:100A100008BF20F00100704710B4B0FA80FC00FA63
:100A20000CF050EA010404BF10BC704749B1CCF18E
:100A3000200421FA04F411FA0CF118BF012121431A
:100A40000843A3EB0C01CB1D4FEA00614FEA1020D5
:100A500042BF002010BC704700EBC3501044002977
:100A6000A4BF10BC7047401C490008BF20F0010023
:100A700010BC704710B5141E73F1000408DA401C56
:100A800041F1000192185B411A4301D120F00100AD
:100A900010BD2DE9F04D92469B4611B1B1FA81F29D
:100AA00002E0B0FA80F220329046FFF77BFF044666
:100AB0000F4640EA0A0041EA0B0153465A460843F2
:100AC00013D0114653EA010019D0C8F14002504634
:100AD000FFF777FF05460E46504659464246FFF758
:100AE00061FF084305D0012004E020463946BDE8F7
:100AF000F08D0020054346EAE0762C4337430A9800
:100B00006305E40AA0EB08000022FD0A44EA47540A
:100B10000A3002D500200146E9E7010510196941B4
:100B2000DDE9084500196941BDE8F04DA2E7C1F3D0
:100B30000A52C1F3130140F2FF3341F480119A428B
:100B400002DA00200146704740F233439A42A2F293
:100B5000334202DC5242FFF734BFFFF723BF0000ED
:100B6000064C074D06E0E06840F0010394E80700FA
:100B700098471034AC42F6D3FFF786FBC001010062
:100B8000E001010030B58C1810F8012B12F00F03B2
:100B900001D110F8013B120906D110F8012B03E036
:100BA00010F8015B01F8015B5B1EF9D101E001F86F
:100BB000013B521EFBD1A142E6D3002030BD70475D
:100BC000704770477047704770477047704770476D
:100BD00070477047704770477047704710B50446BC
:100BE000002C02D034F0690004D040F2B95105A0C5
:100BF00000F046FD0E480078204201D0012010BDD3
:100C0000002010BD2E2E5C647269766572735C687C
:100C10006333325F6C6C5F6472697665725C7372A9
:100C2000635C686333325F6C6C5F636C6B2E630074
:100C30003C40054070B505460024002D06D0012D2E
:100C400004D040F2353119A000F01AFD224EB6F85A
:100C5000FE03C00704D140F2363114A000F010FDAD
:100C600055B1002086F836004FF48051012000F085
:100C70009DFA0446204670BD96F826006FF00502E6
:100C800040070BD0D6F8000101064FF0010009D54E
:100C900096F82A1021B186F83600EBE71446E9E70A
:100CA0001446E7E786F83600E4E700002E2E5C6481
:100CB0007269766572735C686333325F6C6C5F6413
:100CC00072697665725C7372635C686333325F6C01
:100CD0006C5F636C6B2E63000040054070B504468A
:100CE0000025002C06D0012C04D04FF43E7111A039
:100CF00000F0C6FC1A4EB6F8FE03C00704D140F25D
:100D0000F9210CA000F0BCFC164834B100210170A0
:100D1000A02000F0D7FC284670BD96F8261001F000
:100D20000701022902D001210170F1E76FF00505EA
:100D3000EEE700002E2E5C647269766572735C6863
:100D40006333325F6C6C5F6472697665725C737278
:100D5000635C686333325F6C6C5F636C6B2E630043
:100D6000004005401CC4044070B505460024002D19
:100D700006D0012D04D040F20F511BA000F080FCE2
:100D8000244EB6F8FE03C00704D14FF4A26116A0AA
:100D900000F076FC5DB1D6F800014FF480550006F6
:100DA00012D42946082000F001FA044611E096F812
:100DB000260000F00700052803D0012086F82A004D
:100DC00010E06FF005040DE02946012000F0EEF977
:100DD00004463CB9002086F82A002946202000F06D
:100DE000E5F90446204670BD2E2E5C647269766576
:100DF00072735C686333325F6C6C5F6472697665D2
:100E0000725C7372635C686333325F6C6C5F636CDB
:100E10006B2E6300004005402DE9F0410446002C94
:100E20001BD06068C0F3072018387D2804D940F231
:100E3000E44153A000F024FC60684FF0FF3101EB67
:100E400010700E2804D940F2E5414DA000F018FCC6
:100E50006168080605D4554805E06FF00200BDE85A
:100E6000F0815348006801F00302521CB0FBF2F01D
:100E7000C1F307256D1C45434C49494208444D497F
:100E8000884204D940F2EA413DA000F0F9FB4A480B
:100E9000494928444942884204D940F2EB4138A0EC
:100EA00000F0EEFB6068012101EB1070B5FBF0F083
:100EB000424E434F3044B84204D940F2EC4130A096
:100EC00000F0DEFB6068C0F30360401E0E2804D90A
:100ED00040F2ED412AA000F0D3FB6068C0F303505C
:100EE000401E0E2804D940F2EE4125A000F0C8FBB8
:100EF0006068C0F30350401CB5FBF0F03044B842CA
:100F000004D940F2EF411EA000F0BAFB6068C0F3C4
:100F10000360401CB5FBF0F03044B84204D94FF4F4
:100F20009E6117A000F0ACFB2078012805D020B10D
:100F300040F2F24112A000F0A3FB224DB5F8FE03EF
:100F4000C00704D140F2F3410DA000F099FB05F574
:100F500080752868217920F08000C1F3C01140EA33
:100F6000C110286060682860207820B1BDE8F04199
:100F70000020FFF7F9BEBDE8F0410120FFF7F4BE05
:100F80002E2E5C647269766572735C686333325FBF
:100F90006C6C5F6472697665725C7372635C6863C3
:100FA00033325F6C6C5F636C6B2E630000127A00EF
:100FB0000400FE1F4066030100BA3CDCA0CBC3FD69
:100FC000A0E7110C004005400021002815D00022A8
:100FD000426013224271426822F0704202F1805254
:100FE00022F0706202F1807222F4700202F5801227
:100FF000426001220270084670476FF00201FAE772
:1010000070B504460026002C06D0012C04D040F216
:10101000735117A000F034FB204DB5F8FE03C00754
:1010200004D140F2745112A000F02AFB5CB1D5F853
:1010300000014FF48054000609D42146082000F036
:10104000B5F8064608E0012085F82E000DE021469F
:10105000012000F0ABF806463EB9002085F82E00CE
:101060002146402000F0A2F80646304670BD000040
:101070002E2E5C647269766572735C686333325FCE
:101080006C6C5F6472697665725C7372635C6863D2
:1010900033325F6C6C5F636C6B2E63000040054005
:1010A00010B50446002C0CD0204604F029FF094955
:1010B00060680860207838B1BDE810400020FFF774
:1010C0009FBF6FF0020010BDBDE810400120FFF788
:1010D00097BF000004410540002100280AD00122EA
:1010E0000270064A132363F3102222F01F024260AB
:1010F000084670476FF00201FAE700000000101187
:1011000010B509F01FFABDE8104009F0B1BC10B5E8
:1011100009F024FBBDE8104009F0AABC70B50446F4
:10112000102C1AD0202C18D0302C16D0402C14D0D3
:10113000502C12D0602C10D0702C0ED0802C0CD0E3
:10114000902C0AD0A02C08D0B02C06D0C02C04D0F3
:1011500040F2676109A000F093FA134DB5F8FE0361
:10116000C00704D14FF4CD6104A000F089FA85F8DE
:101170002440BDE870401E2000F0A4BA2E2E5C640E
:101180007269766572735C686333325F6C6C5F643E
:1011900072697665725C7372635C686333325F6C2C
:1011A0006C5F636C6B2E630000400540F8B506462B
:1011B0000C46002000906FF0070507E03046FFF76F
:1011C0000DFD012807D00098401C00900098A04217
:1011D000F4D92846F8BD0025FBE7000070B50446A9
:1011E0000025002C06D0012C04D040F27E4111A035
:1011F00000F046FA1A4EB6F8FE03C00704D140F2DA
:101200007F410CA000F03CFA164834B10021017077
:10121000A02000F057FA284670BD96F8261001F07D
:101220000701042902D001210170F1E76FF00505E3
:10123000EEE700002E2E5C647269766572735C685E
:101240006333325F6C6C5F6472697665725C737273
:10125000635C686333325F6C6C5F636C6B2E63003E
:101260000040054000C4044070B505460024002D30
:1012700006D0012D04D040F2C5311AA000F000FACA
:10128000234EB6F8FE03C00704D140F2C63115A0C4
:1012900000F0F6F955B1002086F832004FF4805185
:1012A0000820FFF783FF0446204670BD96F826000D
:1012B0006FF0050200F0070003280BD0D6F80001FC
:1012C00001064FF0010009D496F82A1021B186F8E2
:1012D0003200E9E71446E7E71446E5E786F832000E
:1012E000E2E700002E2E5C647269766572735C68BA
:1012F0006333325F6C6C5F6472697665725C7372C3
:10130000635C686333325F6C6C5F636C6B2E63008D
:101310000040054070B50446002C3CD020780128E0
:1013200005D020B140F2A6312AA000F0A9F96078DA
:1013300050B1102808D0202806D0302804D040F220
:10134000A73124A000F09CF9A07830B1402804D047
:101350004FF46A711FA000F093F9E078012814D0CF
:10136000022812D0032810D004280ED005280CD053
:1013700006280AD0072808D0082806D0092804D053
:1013800040F2A93113A000F07BF91D4DB5F8FE0322
:10139000C00708D102E06FF0020070BD40F2AA3130
:1013A0000CA000F06DF9E07885F8A2006078A178D3
:1013B0000843144940F080000870207820B1BDE84F
:1013C00070400020FFF750BFBDE870400120FFF7DC
:1013D0004BBF00002E2E5C647269766572735C6888
:1013E0006333325F6C6C5F6472697665725C7372D2
:1013F000635C686333325F6C6C5F636C6B2E63009D
:101400000040054078CC044070470021002808D0F7
:10141000012202700022827042700522C2700846CA
:1014200070476FF00201FAE7704770472DE9F05FEF
:10143000044689464FF0010B4FF0FF356548664E74
:10144000664F84421DD0664884421AD06548844263
:1014500017D06548844214D0B44212D06348844205
:101460000FD0634884420CD06248844209D062485D
:10147000844206D0BC4204D040F205215FA000F0B7
:10148000FFF8B44201D0BC4201D14FF0000BD9F8B3
:101490000040D9F804A0002C7DD0BAF1000F7AD01A
:1014A000BBF1010F5BD14FEA8A01B4FBF1F0401EA2
:1014B000FF2854D8C9F80800B4FBF1F201FB12412F
:1014C000E9B30026401C46F100018A0042EA90720E
:1014D0008100A1FB0A0302FB0A3201FB06210F0275
:1014E00047EA10674FEA002871084FEA340018EB0A
:1014F0000000794122460023FEF7E0FE6FF07F01F5
:1015000042187F2A29D8C9F80C2039464046803233
:10151000A2FB045746F1000303FB047302FB0636EB
:10152000FFF7D7F90746884628463146FFF7D1F935
:101530003A464346FFF743F9FFF702FA00E007E0B7
:101540004FF07E51FEF7DEFFC9F81000002506E0DF
:101550000020C9F81000002501E04FF0000BBBF19E
:10156000000F33D104EB840040004FEA8A01B0FB46
:10157000F1F0401D0A21B0FBF1F0401EFF2825D8F4
:10158000C9F808000022401C42F100018B0043EA28
:101590009073810000E019E0A1FB0A0503FB0A53E8
:1015A00001FB0231FFF795F905460E462046FFF78D
:1015B00083F92A463346FFF702F9FFF7C1F94FF0E6
:1015C0007E51FEF79FFFC9F8100000252846BDE8B0
:1015D000F09F000000CC014000DC0140001C0240F4
:1015E00000D0014000D4014000D80140000C02406E
:1015F0000010024000140240001802402E2E5C64CD
:101600007269766572735C686333325F6C6C5F64B9
:1016100072697665725C7372635C686333325F6CA7
:101620006C5F75736172742E630000007FB50546B0
:101630000121480300F084F9684609F0F7FA002414
:101640000094019502944FF6FF70ADF80C006A46C5
:101650000121064809F066FA04481030016821F4B7
:10166000803101600148001D04607FBD00440240DC
:1016700070477047704770477047704770477047B2
:10168000FEE7000008B50D49096AC1F302630C4981
:101690000968D94042F210731944491EB1FBF3F2B4
:1016A00006E0009200BF00994B1E00930029FAD17A
:1016B000011EA0F10100F4D108BD0000004005406A
:1016C0000000FE1F08B50C49096AC1F302630B490B
:1016D0000968D9400A4B1944491EB1FBF3F206E0F0
:1016E000009200BF00994B1E00930029FAD1011E01
:1016F000A0F10100F4D108BD004005400000FE1F2C
:1017000080969800704770477047704770477047E1
:101710007047704770477047704770477047704711
:101720007047704770477047704770477047704701
:1017300070477047704770477047704770477047F1
:1017400070477047704770477047704770477047E1
:1017500070477047704770477047704770477047D1
:101760007047704770B504460E46154611488442CE
:1017700007D01148844204D040F26B110FA0FFF74C
:101780007FFF072E04D94FF4B6710CA0FFF778FF46
:1017900035B1012D04D040F26D1108A0FFF770FFA4
:1017A0000120B040C0B2012D02D06063002070BDA6
:1017B000E061FBE700300540003405402E2E5C64FC
:1017C0007269766572735C686333325F6C6C5F64F8
:1017D00072697665725C7372635C686333325F6CE6
:1017E0006C5F646D612E630070477047704770478F
:1017F0007047704770477047704700002DE9F0410F
:101800000546002418480068012804D04FF4B2713E
:1018100016A0FFF735FF0F2D04D940F2651113A074
:10182000FFF72EFF10481830016865F303010160CF
:101830001A49194B44F620620E680DE0641C196ABF
:10184000C1F3026726FA07F1B1FBF2F1A14203D21C
:101850006FF00700BDE8F081016801F00F01A942B7
:10186000ECD10020F6E70000000401402E2E5C645D
:101870007269766572735C686333325F6C6C5F6447
:1018800072697665725C7372635C686333325F6C35
:101890006C5F65666D2E6300004005400000FE1F12
:1018A0007047704770477047704770477047704780
:1018B0007047704770477047704770477047704770
:1018C0007047704770477047704770477047704760
:1018D0007047000070B504460D46002C01D0200F63
:1018E00003D084210AA0FFF7CBFE2DB1012D03D038
:1018F000852107A0FFF7C4FE1048012D03D04168E1
:101900002143416070BD4168A143416070BD00004A
:101910002E2E5C647269766572735C686333325F25
:101920006C6C5F6472697665725C7372635C686329
:1019300033325F6C6C5F6663672E63000080044027
:1019400070B504460D46002C01D0600403D59621E5
:101950000AA0FFF795FE2DB1012D03D0972107A016
:10196000FFF78EFE1048012D03D08168214381606E
:1019700070BD8168A143816070BD00002E2E5C6443
:101980007269766572735C686333325F6C6C5F6436
:1019900072697665725C7372635C686333325F6C24
:1019A0006C5F6663672E63000080044070B5044678
:1019B0000D46002C02D00C48044203D0A8210BA0F5
:1019C000FFF75EFE2DB1012D03D0A92107A0FFF77F
:1019D00057FE1148012D03D0C1682143C16070BD7D
:1019E000C168A143C16070BDC06C08C02E2E5C648C
:1019F0007269766572735C686333325F6C6C5F64C6
:101A000072697665725C7372635C686333325F6CB3
:101A10006C5F6663672E6300008004407047704708
:101A20007047704770477047704700002DE9F041DC
:101A300005460E4614460027002C04D05B4800885B
:101A4000C00708D102E06FF00207ACE040F20D11D0
:101A500057A0FFF715FEA5B1012D12D0022D10D011
:101A6000032D0ED0042D0CD0052D0AD0062D08D044
:101A7000072D06D0082D04D04FF487714CA0FFF736
:101A8000FFFD26B940F20F1149A0FFF7F9FD2088AC
:101A900030B1012804D04FF4887145A0FFF7F0FD64
:101AA000608830B1022804D040F2111140A0FFF745
:101AB000E7FDA08830B1042804D04FF489713CA020
:101AC000FFF7DEFDE08840B1102806D0202804D0C2
:101AD00040F2131136A0FFF7D3FD208938B1B0F5DD
:101AE000804F04D04FF48A7131A0FFF7C9FD60899F
:101AF00030B1402804D040F215112DA0FFF7C0FDF1
:101B0000A08938B1B0F5007F04D04FF48B7128A0C4
:101B1000FFF7B6FDE08938B1B0F5805F04D040F240
:101B2000171123A0FFF7ACFD208A38B1B0F5806F04
:101B300004D04FF48C711EA0FFF7A2FD608A38B16B
:101B4000B0F5004F04D040F2191119A0FFF798FD2D
:101B50000020F10721D022886188E3880A43A18808
:101B600019430A4361890A43A1890A43E1890A4367
:101B700021890A43618A1143228A0A434DF2776C14
:101B8000A9010A4B01EB80011B1D19440B8802EAD5
:101B90000C0223EA0C0313430B8076081EB1401C91
:101BA000C0B21028D5D33846BDE8F081FC3B0540D3
:101BB0002E2E5C647269766572735C686333325F83
:101BC0006C6C5F6472697665725C7372635C686387
:101BD00033325F6C6C5F6770696F2E6300000000CA
:101BE00070B504460D46002C14D0012C12D0022CE6
:101BF00010D0032C0ED0042C0CD0052C0AD0062CAF
:101C000008D0072C06D0082C04D04FF404710AA089
:101C1000FFF736FD25B940F2112107A0FFF730FD8F
:101C2000114901EB0410B0F80008284201D001204E
:101C300070BD002070BD00002E2E5C647269766558
:101C400072735C686333325F6C6C5F647269766573
:101C5000725C7372635C686333325F6C6C5F677075
:101C6000696F2E63000000000030054070B5044627
:101C70000D461646002C14D0012C12D0022C10D088
:101C8000032C0ED0042C0CD0052C0AD0062C08D026
:101C9000072C06D0082C04D04FF4C77118A0FFF70A
:101CA000EFFC25B940F28F1115A0FFF7E9FC142EC7
:101CB00008D9A6F120001F2804D94FF4C87110A03C
:101CC000FFF7DEFC1A480088C00704D140F29111EA
:101CD0000BA0FFF7D5FC0020A301154CA41DE907BC
:101CE00006D003EB800121440A8866F305020A80CE
:101CF0006D08002D03D0401CC0B21028EFD370BD7A
:101D00002E2E5C647269766572735C686333325F31
:101D10006C6C5F6472697665725C7372635C686335
:101D200033325F6C6C5F6770696F2E630000000078
:101D3000FC3B054010B50446002C19D0B4F5805F7B
:101D400016D0B4F5005F13D0B4F5405F10D0B4F5F1
:101D5000804F0DD0B4F5A04F0AD0B4F5C04F07D0D6
:101D6000B4F5E04F04D04FF4F6710BA0FFF788FCF8
:101D700015480088C00704D140F2ED1106A0FFF716
:101D80007FFC1148001F018804F4E04221F4E04187
:101D90001143018010BD00002E2E5C6472697665CF
:101DA00072735C686333325F6C6C5F647269766512
:101DB000725C7372635C686333325F6C6C5F677014
:101DC000696F2E6300000000FC3B054000220028E4
:101DD0000CD0002101804180C1804182018141817C
:101DE0008181C18181800182104670476FF00202BB
:101DF000FAE7000070B504460D46002C14D0012C03
:101E000012D0022C10D0032C0ED0042C0CD0052C98
:101E10000AD0062C08D0072C06D0082C04D040F29B
:101E20007F2108A0FFF72CFC25B94FF4207105A0F5
:101E3000FFF726FC0F4800EB0410018829430180BE
:101E400070BD00002E2E5C647269766572735C68EA
:101E50006333325F6C6C5F6472697665725C737257
:101E6000635C686333325F6C6C5F6770696F2E63AD
:101E7000000000000C38054010B508210320FFF7D2
:101E8000AFFE012801D0012010BD002010BD704719
:101E9000704770477047704770477047704770478A
:101EA000704770477047704770477047704770477A
:101EB000704770477047704770477047704770476A
:101EC000704770477047704770477047704770475A
:101ED00070477047704700002DE9F0410446002527
:101EE000EE1E002C1BD02088B0F5007F03D3C62146
:101EF0001BA0FFF7C5FB2288500900EB4001202002
:101F000000EB4103B4F90200834204D8252303EB1C
:101F10004101814205D2202803D335461CE03546D5
:101F20001AE01C4901EB80010E681B4F1B4BB7EBFD
:101F3000C65F06D10A60B4F90210606843F8210058
:101F40000AE00968C1F308018A4203D1616843F8D5
:101F5000201001E06FF001052846BDE8F081000087
:101F60002E2E5C647269766572735C686333325FCF
:101F70006C6C5F6472697665725C7372635C6863D3
:101F800033325F6C6C5F696E7465727275707473F6
:101F90002E6300005C100540000080FFE008FE1F7B
:101FA00070B505460C46002C05D0012C03D05521F8
:101FB0000AA0FFF765FB1949680901EB80020123BC
:101FC00005F01F008340012C04D010689843106076
:101FD000002070BD106818431060F9E72E2E5C6475
:101FE0007269766572735C686333325F6C6C5F64D0
:101FF00072697665725C7372635C686333326634EF
:1020000061305F6C6C5F696E746572727570747349
:102010005F73686172652E63000000005C1205400A
:1020200010B5034800688047BFF34F8F10BD000014
:10203000E008FE1F10B5034840688047BFF34F8F8C
:1020400010BD0000E008FE1F10B5034880688047FF
:10205000BFF34F8F10BD0000E008FE1F10B503480E
:10206000C0688047BFF34F8F10BD0000E008FE1F1F
:1020700010B5034800698047BFF34F8F10BD0000C3
:10208000E008FE1F10B5034840698047BFF34F8F3B
:1020900010BD0000E008FE1F10B5034880698047AE
:1020A000BFF34F8F10BD0000E008FE1F10B50348BE
:1020B000C0698047BFF34F8F10BD0000E008FE1FCE
:1020C00010B50348006A8047BFF34F8F10BD000072
:1020D000E008FE1F10B50348406A8047BFF34F8FEA
:1020E00010BD0000E008FE1F10B50348806A80475D
:1020F000BFF34F8F10BD0000E008FE1F10B503486E
:10210000C06A8047BFF34F8F10BD0000E008FE1F7C
:1021100010B50348006B8047BFF34F8F10BD000020
:10212000E008FE1F10B50348406B8047BFF34F8F98
:1021300010BD0000E008FE1F10B50348806B80470B
:10214000BFF34F8F10BD0000E008FE1F10B503481D
:10215000C06B8047BFF34F8F10BD0000E008FE1F2B
:1021600010B50348006C8047BFF34F8F10BD0000CF
:10217000E008FE1F10B50348406C8047BFF34F8F47
:1021800010BD0000E008FE1F10B50348806C8047BA
:10219000BFF34F8F10BD0000E008FE1F10B50348CD
:1021A000C06C8047BFF34F8F10BD0000E008FE1FDA
:1021B00010B50348006D8047BFF34F8F10BD00007E
:1021C000E008FE1F10B50348406D8047BFF34F8FF6
:1021D00010BD0000E008FE1F10B50348806D804769
:1021E000BFF34F8F10BD0000E008FE1F10B503487D
:1021F000C06D8047BFF34F8F10BD0000E008FE1F89
:1022000010B50348006E8047BFF34F8F10BD00002C
:10221000E008FE1F10B50348406E8047BFF34F8FA4
:1022200010BD0000E008FE1F10B50348806E804717
:10223000BFF34F8F10BD0000E008FE1F10B503482C
:10224000C06E8047BFF34F8F10BD0000E008FE1F37
:1022500010B50348006F8047BFF34F8F10BD0000DB
:10226000E008FE1F10B50348406F8047BFF34F8F53
:1022700010BD0000E008FE1F10B50348806F8047C6
:10228000BFF34F8F10BD0000E008FE1F10B50348DC
:10229000C06F8047BFF34F8F10BD0000E008FE1FE6
:1022A00010B50348D0F880008047BFF34F8F10BDB2
:1022B000E008FE1F10B50348D0F884008047BFF344
:1022C0004F8F10BDE008FE1F10B50348D0F88800FE
:1022D0008047BFF34F8F10BDE008FE1F10B50348C5
:1022E000D0F88C008047BFF34F8F10BDE008FE1F71
:1022F00010B50348D0F890008047BFF34F8F10BD52
:10230000E008FE1F10B50348D0F894008047BFF3E3
:102310004F8F10BDE008FE1F10B50348D0F898009D
:102320008047BFF34F8F10BDE008FE1F10B5034874
:10233000D0F89C008047BFF34F8F10BDE008FE1F10
:1023400010B50348D0F8A0008047BFF34F8F10BDF1
:10235000E008FE1F10B50348D0F8A4008047BFF383
:102360004F8F10BDE008FE1F10B50348D0F8A8003D
:102370008047BFF34F8F10BDE008FE1F10B5034824
:10238000D0F8AC008047BFF34F8F10BDE008FE1FB0
:1023900010B50348D0F8B0008047BFF34F8F10BD91
:1023A000E008FE1F10B50348D0F8B4008047BFF323
:1023B0004F8F10BDE008FE1F10B50348D0F8B800DD
:1023C0008047BFF34F8F10BDE008FE1F10B50348D4
:1023D000D0F8BC008047BFF34F8F10BDE008FE1F50
:1023E00010B50348D0F8C0008047BFF34F8F10BD31
:1023F000E008FE1F10B50348D0F8C4008047BFF3C3
:102400004F8F10BDE008FE1F10B50348D0F8C8007C
:102410008047BFF34F8F10BDE008FE1F10B5034883
:10242000D0F8CC008047BFF34F8F10BDE008FE1FEF
:1024300010B50348D0F8D0008047BFF34F8F10BDD0
:10244000E008FE1F10B50348D0F8D4008047BFF362
:102450004F8F10BDE008FE1F10B50348D0F8D8001C
:102460008047BFF34F8F10BDE008FE1F10B5034833
:10247000D0F8DC008047BFF34F8F10BDE008FE1F8F
:1024800010B50348D0F8E0008047BFF34F8F10BD70
:10249000E008FE1F10B50348D0F8E4008047BFF302
:1024A0004F8F10BDE008FE1F10B50348D0F8E800BC
:1024B0008047BFF34F8F10BDE008FE1F10B50348E3
:1024C000D0F8EC008047BFF34F8F10BDE008FE1F2F
:1024D00010B50348D0F8F0008047BFF34F8F10BD10
:1024E000E008FE1F10B50348D0F8F4008047BFF3A2
:1024F0004F8F10BDE008FE1F10B50348D0F8F8005C
:102500008047BFF34F8F10BDE008FE1F10B5034892
:10251000D0F8FC008047BFF34F8F10BDE008FE1FCE
:1025200010B50348D0F800018047BFF34F8F10BDAE
:10253000E008FE1F10B50348D0F804018047BFF340
:102540004F8F10BDE008FE1F10B50348D0F80801FA
:102550008047BFF34F8F10BDE008FE1F10B5034842
:10256000D0F80C018047BFF34F8F10BDE008FE1F6D
:1025700010B50348D0F810018047BFF34F8F10BD4E
:10258000E008FE1F10B50348D0F814018047BFF3E0
:102590004F8F10BDE008FE1F10B50348D0F818019A
:1025A0008047BFF34F8F10BDE008FE1F10B50348F2
:1025B000D0F81C018047BFF34F8F10BDE008FE1F0D
:1025C00010B50348D0F820018047BFF34F8F10BDEE
:1025D000E008FE1F10B50348D0F824018047BFF380
:1025E0004F8F10BDE008FE1F10B50348D0F828013A
:1025F0008047BFF34F8F10BDE008FE1F10B50348A2
:10260000D0F82C018047BFF34F8F10BDE008FE1FAC
:1026100010B50348D0F830018047BFF34F8F10BD8D
:10262000E008FE1F10B50348D0F834018047BFF31F
:102630004F8F10BDE008FE1F10B50348D0F83801D9
:102640008047BFF34F8F10BDE008FE1F10B5034851
:10265000D0F83C018047BFF34F8F10BDE008FE1F4C
:1026600010B50348D0F840018047BFF34F8F10BD2D
:10267000E008FE1F10B50348D0F844018047BFF3BF
:102680004F8F10BDE008FE1F10B50348D0F8480179
:102690008047BFF34F8F10BDE008FE1F10B5034801
:1026A000D0F84C018047BFF34F8F10BDE008FE1FEC
:1026B00010B50348D0F850018047BFF34F8F10BDCD
:1026C000E008FE1F10B50348D0F854018047BFF35F
:1026D0004F8F10BDE008FE1F10B50348D0F8580119
:1026E0008047BFF34F8F10BDE008FE1F10B50348B1
:1026F000D0F85C018047BFF34F8F10BDE008FE1F8C
:1027000010B50348D0F860018047BFF34F8F10BD6C
:10271000E008FE1F10B50348D0F864018047BFF3FE
:102720004F8F10BDE008FE1F10B50348D0F86801B8
:102730008047BFF34F8F10BDE008FE1F10B5034860
:10274000D0F86C018047BFF34F8F10BDE008FE1F2B
:1027500010B50348D0F870018047BFF34F8F10BD0C
:10276000E008FE1F10B50348D0F874018047BFF39E
:102770004F8F10BDE008FE1F10B50348D0F8780158
:102780008047BFF34F8F10BDE008FE1F10B5034810
:10279000D0F87C018047BFF34F8F10BDE008FE1FCB
:1027A00010B50348D0F880018047BFF34F8F10BDAC
:1027B000E008FE1F10B50348D0F884018047BFF33E
:1027C0004F8F10BDE008FE1F10B50348D0F88801F8
:1027D0008047BFF34F8F10BDE008FE1F10B50348C0
:1027E000D0F88C018047BFF34F8F10BDE008FE1F6B
:1027F00010B50348D0F890018047BFF34F8F10BD4C
:10280000E008FE1F10B50348D0F894018047BFF3DD
:102810004F8F10BDE008FE1F10B50348D0F8980197
:102820008047BFF34F8F10BDE008FE1F10B503486F
:10283000D0F89C018047BFF34F8F10BDE008FE1F0A
:1028400010B50348D0F8A0018047BFF34F8F10BDEB
:10285000E008FE1F10B50348D0F8A4018047BFF37D
:102860004F8F10BDE008FE1F10B50348D0F8A80137
:102870008047BFF34F8F10BDE008FE1F10B503481F
:10288000D0F8AC018047BFF34F8F10BDE008FE1FAA
:1028900010B50348D0F8B0018047BFF34F8F10BD8B
:1028A000E008FE1F10B50348D0F8B4018047BFF31D
:1028B0004F8F10BDE008FE1F10B50348D0F8B801D7
:1028C0008047BFF34F8F10BDE008FE1F10B50348CF
:1028D000D0F8BC018047BFF34F8F10BDE008FE1F4A
:1028E00010B50348D0F8C0018047BFF34F8F10BD2B
:1028F000E008FE1F10B50348D0F8C4018047BFF3BD
:102900004F8F10BDE008FE1F10B50348D0F8C80176
:102910008047BFF34F8F10BDE008FE1F10B503487E
:10292000D0F8CC018047BFF34F8F10BDE008FE1FE9
:1029300010B50348D0F8D0018047BFF34F8F10BDCA
:10294000E008FE1F10B50348D0F8D4018047BFF35C
:102950004F8F10BDE008FE1F10B50348D0F8D80116
:102960008047BFF34F8F10BDE008FE1F10B503482E
:10297000D0F8DC018047BFF34F8F10BDE008FE1F89
:1029800010B50348D0F8E0018047BFF34F8F10BD6A
:10299000E008FE1F10B50348D0F8E4018047BFF3FC
:1029A0004F8F10BDE008FE1F10B50348D0F8E801B6
:1029B0008047BFF34F8F10BDE008FE1F10B50348DE
:1029C000D0F8EC018047BFF34F8F10BDE008FE1F29
:1029D00010B50348D0F8F0018047BFF34F8F10BD0A
:1029E000E008FE1F10B50348D0F8F4018047BFF39C
:1029F0004F8F10BDE008FE1F10B50348D0F8F80156
:102A00008047BFF34F8F10BDE008FE1F10B503488D
:102A1000D0F8FC018047BFF34F8F10BDE008FE1FC8
:102A200010B54A4804684A480068012803D1E00705
:102A300001D0FEF73EFF4648001D0068012803D183
:102A4000A00701D5FEF736FF41480830006801288D
:102A500003D1600701D5FEF72EFF3D480C3000681A
:102A6000012803D1200701D5FEF726FF3848103092
:102A70000068012803D1E00601D5FEF71EFF3448A7
:102A800014300068012803D1A00601D5FEF716FF17
:102A90002F4818300068012803D1600601D5FEF7E1
:102AA0000EFF2B481C300068012803D1200601D5F9
:102AB000FEF706FF264820300068012803D1E00514
:102AC00001D5FEF7FEFE224824300068012803D11C
:102AD000A00501D5FEF7F6FE1D4828300068012844
:102AE00003D1600501D5FEF7EEFE19482C300068D1
:102AF000012803D1200501D5FEF7E6FE1448303049
:102B00000068012803D1E00401D5FEF7DEFE10487D
:102B100034300068012803D1A00401D5FEF7D6FEA9
:102B20000B4838300068012803D1600401D5FEF756
:102B3000CEFE07483C300068012803D1200401D5AF
:102B4000FEF7C6FEBFF34F8F10BD00005C120540BC
:102B5000800AA24270B5F6480468F6480068F64E4E
:102B6000F64D012822D1D5F8000238B9D5F8000178
:102B7000012803D1E00701D0FEF7D4FDD5F84002CB
:102B800038B9D5F84001012803D1E00501D5FEF799
:102B9000B9FD706800F00110F2684FF00111914327
:102BA000084203D0E00301D5FEF7B4FDE448006815
:102BB000012822D1D5F8040238B9D5F8040101283A
:102BC00003D1A00701D5FEF7AEFDD5F8440238B910
:102BD000D5F84401012803D1A00501D5FEF793FDE6
:102BE000706800F00211F2684FF002109043014249
:102BF00003D0E00301D5FEF78EFDD248006801281E
:102C000022D1D5F8080238B9D5F80801012803D136
:102C1000600701D5FEF788FDD5F8480238B9D5F828
:102C20004801012803D1600501D5FEF76DFD7068EC
:102C300000F00410F2684FF004119143084203D0F1
:102C4000E00301D5FEF768FDBF480068012822D1E6
:102C5000D5F80C0238B9D5F80C01012803D12007AA
:102C600001D5FEF762FDD5F84C0238B9D5F84C0114
:102C7000012803D1200501D5FEF747FD706800F05B
:102C80000810F2684FF008119143084203D0E003A6
:102C900001D5FEF742FDAD480068012822D1D5F8E4
:102CA000100238B9D5F81001012803D1E00601D58A
:102CB000FEF73CFDD5F8500238B9D5F8500101288F
:102CC00003D1E00401D5FEF721FD706800F010117A
:102CD000F2684FF010109043014203D0E00301D599
:102CE000FEF71CFD9A480068012822D1D5F814028D
:102CF00038B9D5F81401012803D1A00601D5FEF793
:102D000016FDD5F8540238B9D5F85401012803D17D
:102D1000A00401D5FEF7FBFC706800F02011F268FA
:102D20004FF020109043014203D0E00301D5FEF79D
:102D3000F6FC88480068012822D1D5F8180238B975
:102D4000D5F81801012803D1600601D5FEF7F0FC83
:102D5000D5F8580238B9D5F85801012803D16004D4
:102D600001D5FEF7D5FC706800F04011F2684FF015
:102D700040109043014203D0E00301D5FEF7D0FCA0
:102D800075480068012820D1D5F81C0238B9D5F85B
:102D90001C01012803D1200601D5FEF7CAFCD5F895
:102DA0005C0238B9D5F85C01012803D1200401D5B3
:102DB000FEF7AFFC716869480140F2689043014238
:102DC00003D0E00301D5FEF7ACFC65480068654D13
:102DD000012807D128686449084018B1A00301D52B
:102DE000FEF70AFD5E4808300068012807D1286810
:102DF00000F0201018B1600301D5FEF7FBFC584825
:102E0000001D0068012807D1286800F0101018B1D3
:102E1000200301D5FEF7EFFC4FF01C40C06800F026
:102E2000800018B1600201D503F03BFA4F48C06F33
:102E300040F67F65012809D14D49886949680840F5
:102E4000284203D0200201D5FEF712FC4948C06F8A
:102E500001280BD1484800684749143909680840DF
:102E6000284203D0E00101D5FEF703FC4348C06FC0
:102E700001280BD1424800684149143909680840CB
:102E8000284203D0A00101D5FEF7F4FB3D48C06FF6
:102E900001280BD13C4800683B49143909680840B7
:102EA000284203D0600101D5FEF7E5FB3748C06F2B
:102EB000012809D13649886949680840284203D069
:102EC000200101D5FEF7D8FB3248C06F01280BD195
:102ED000314801683048143800680140294203D065
:102EE000E00001D5FEF7C9FB2C48C06F01280BD1CB
:102EF0002B4800682A49143909680840284203D041
:102F0000A00001D5FEF7BAFB2648C06F01280BD1FF
:102F1000254800682449143909680840284203D02C
:102F2000600001D5FEF7ABFBBFF34F8F70BD000013
:102F300060120540B00BA642003005400000A642DA
:102F4000B013A642B01BA642B023A642B02BA642A5
:102F5000B033A642B03BA642B043A6428000400038
:102F600000852042200401400F000E000000AC420A
:102F7000006005400080AC42186405400000AD428E
:102F8000186805400080AD42186C05400000AE4254
:102F9000007005400080AE42187405400000AF424A
:102FA000187805400080AF42187C05402DE9F041BB
:102FB000E3480468E3484068012808D0E248006814
:102FC000E24FE24E0837E24D012805D027E020030A
:102FD00001D502F05DFDAEE1D5F8000238B9D5F8B3
:102FE0000001012803D1E00701D0FEF7B3FBD5F8BB
:102FF000400238B9D5F84001012803D1E00501D5D8
:10300000FEF798FB306800F001103A684FF00111AC
:103010009143084203D0E00301D5FEF793FBCD486E
:103020000068012822D1D5F8040238B9D5F8040186
:10303000012803D1A00701D5FEF78DFBD5F8440286
:1030400038B9D5F84401012803D1A00501D5FEF710
:1030500072FB306800F002103A684FF002119143A1
:10306000084203D0E00301D5FEF76DFBBA480068C3
:10307000012822D1D5F8080238B9D5F8080101286D
:1030800003D1600701D5FEF767FBD5F8480238B9D0
:10309000D5F84801012803D1600501D5FEF74CFBA6
:1030A000306800F004103A684FF004119143084270
:1030B00003D0E00301D5FEF747FBA84800680128CC
:1030C00022D1D5F80C0238B9D5F80C01012803D16A
:1030D000200701D5FEF741FBD5F84C0238B9D5F8E9
:1030E0004C01012803D1200501D5FEF726FB3068ED
:1030F00000F008103A684FF008119143084203D0DD
:10310000E00301D5FEF721FB95480068012822D194
:10311000D5F8100238B9D5F81001012803D1E0061E
:1031200001D5FEF71BFBD5F8500238B9D5F8500190
:10313000012803D1E00401D5FEF700FB306800F060
:1031400010103A684FF010119143084203D0E00389
:1031500001D5FEF7FBFA83480068012822D1D5F893
:10316000140238B9D5F81401012803D1A00601D5FD
:10317000FEF7F5FAD5F8540238B9D5F8540101280C
:1031800003D1A00401D5FEF7DAFA306800F0201070
:103190003A684FF020119143084203D0E00301D573
:1031A000FEF7D5FA70480068012822D1D5F8180238
:1031B00038B9D5F81801012803D1600601D5FEF70A
:1031C000CFFAD5F8580238B9D5F85801012803D1FB
:1031D000600401D5FEF7B4FA306800F040103A6898
:1031E0004FF040119143084203D0E00301D5FEF7B0
:1031F000AFFA5E480068012820D1D5F81C0238B922
:10320000D5F81C01012803D1200601D5FEF7A9FA43
:10321000D5F85C0238B9D5F85C01012803D1200447
:1032200001D5FEF78EFA3168514801403A68904363
:10323000014203D0E00301D5FEF78BFA4D4DD5F8DE
:103240008001012807D1D5F80001012803D1E0024F
:1032500001D5FEF7CBFAD5F88401012807D1D5F8BE
:103260000401012803D1A00201D5FEF7C1FAD5F867
:103270008801012807D1D5F80801012803D160028F
:1032800001D5FEF7B4FAD5F88C01012807D1D5F89D
:103290000C01012803D1200201D5FEF7A6FAD5F8CA
:1032A0009001012807D1D5F81001012803D1E001D0
:1032B00001D5FEF79EFAD5F89401012807D1D5F87B
:1032C0001401012803D1A00101D5FEF78DFA2A4887
:1032D000D0F80011012907D1D0F87C03012803D1CF
:1032E000200101D5FEF79DFB2448D0F800110129EB
:1032F00007D1D0F87C03012803D1E00001D5FEF707
:1033000091FB1F48D0F80011012907D1D0F87C03A8
:10331000012803D1A00001D5FEF785FB1948D0F89C
:103320000011012907D1D0F87C03012803D16000E6
:1033300001D5FEF779FBBFF34F8FBDE8F0810000A8
:10334000641205400000AA42B08BA6420434054036
:103350000080A642B093A642B09BA642B0A3A6426C
:10336000B0ABA642B0B3A642B0BBA642B0C3A64221
:10337000800040000000AB420000B0420080B0423C
:103380000000B1420080B14270B5AF480468AF4D53
:10339000D5F80802012807D1D5F88002012803D109
:1033A000E00701D007F0BAFBD5F84802012807D1A1
:1033B000D5F8C002012803D1A00701D507F0AFFB63
:1033C000A34DD5F80802012807D1D5F880020128BD
:1033D00003D1600701D507F0A3FBD5F84802012807
:1033E00007D1D5F8C002012803D1200701D507F085
:1033F00098FB984DD5F88002012807D196480068BF
:10340000012803D1E00601D507F01FFCD5F8C00262
:10341000012808D1904840300068012803D1A00657
:1034200001D507F013FCD5F88402012808D18A4899
:10343000001D0068012803D1600601D507F007FCD4
:10344000D5F8C402012808D1834844300068012817
:1034500003D1200601D507F0FBFB804DD5F8800293
:10346000012807D17E480068012803D1E00501D575
:1034700007F0EFFBD5F8C002012808D178484030AA
:103480000068012803D1A00501D507F0E3FBD5F8BA
:103490008402012808D17248001D0068012803D168
:1034A000600501D507F0D7FBD5F8C402012808D183
:1034B0006B4844300068012803D1200501D507F08E
:1034C000CBFB684DD5F88002012807D1664800681B
:1034D000012803D1E00401D507F0BFFBD5F8C002F5
:1034E000012808D1604840300068012803D1A004B9
:1034F00001D507F0B3FBD5F88402012808D15A485A
:10350000001D0068012803D1600401D507F0A7FB66
:10351000D5F8C402012808D1534844300068012876
:1035200003D1200401D507F09BFB504DD5F8800254
:10353000012807D14E480068012803D1E00301D5D6
:1035400007F08FFBD5F8C002012808D14848403069
:103550000068012803D1A00301D507F083FBD5F84B
:103560008402012808D14248001D0068012803D1C7
:10357000600301D507F077FBD5F8C402012808D114
:103580003B4844300068012803D1200301D507F0EF
:103590006BFB38480068012808D13648EC300068D9
:1035A000012803D1E00101D503F01DFC3148803032
:1035B0000068012808D12F48F0300068012803D1A5
:1035C000E00101D503F010FC2B4DD5F818010128BE
:1035D00007D1D5F80C01012803D1A00101D502F0D3
:1035E00061FED5F81401012807D1D5F8080101289A
:1035F00003D1600101D503F06DF92048006801286E
:1036000008D11E4820300068012803D1A00001D550
:10361000FDF7FAFE1A480068012808D118480C384E
:103620000068012803D1600001D502F039FE154879
:10363000006800F4403018B1002C01DA06F0CEFE2C
:10364000BFF34F8F70BD0000681205400000484274
:10365000008048420000494200044942008049423B
:103660000084494200004A4200044A4200804A4223
:1036700000844A4214089842000098420008A84278
:103680001C8B98420494044070B5D7480468D7480E
:103690000068012807D1D6480068012803D1E00757
:1036A00001D007F003FBD148001D0068012808D1B4
:1036B000CF48001D0068012803D1A00701D507F0FD
:1036C000F6FACA4808300068012808D1C84808300E
:1036D0000068012803D1600701D507F0E9FAC34863
:1036E0000C300068012808D1C1480C30006801285E
:1036F00003D1200701D507F0DCFABC481030006880
:10370000012808D1BA4810300068012803D1E0062A
:1037100001D507F0CFFAB54814300068012808D168
:10372000B34814300068012803D1A00601D507F082
:10373000C2FAAE4818300068012808D1AC481830E9
:103740000068012803D1600601D507F0B6FAA74842
:103750001C300068012808D1A5481C3000680128E9
:1037600003D1200601D507F0A9FAA24DD5F8100320
:10377000012807D1D5F81803012803D1E00501D5A8
:1037800007F073FAD5F81403012807D1D5F81C0304
:10379000012803D1A00501D507F068FAD5F89003F8
:1037A000012807D1D5F89803012803D1600501D578
:1037B00007F05DFAD5F89403012807D1D5F89C03EA
:1037C000012803D1200501D507F052FA8A48006884
:1037D000012808D1884808300068012803D1E00496
:1037E00001D507F046FA8448001D0068012808D179
:1037F00081480C300068012803D1A00401D507F0EE
:1038000039FA7E480068012808D17C48001D00680C
:10381000012803D1600401D507F02DFA7748143050
:103820000068012808D1754818300068012803D1C4
:10383000200401D507F023FA71480068012807D158
:1038400070480068012803D1E00301D507F03BFA76
:103850006B48001D0068012808D16A48001D0068F7
:10386000012803D1A00301D507F02EFA64480830DF
:103870000068012808D1634808300068012803D196
:10388000600301D507F021FA5D480C30006801287B
:1038900008D15C480C300068012803D1200301D511
:1038A00007F014FA564810300068012808D155482E
:1038B00010300068012803D1E00201D507F007FAB3
:1038C0004F4814300068012808D14E481430006871
:1038D000012803D1A00201D507F0FAF948481830B1
:1038E0000068012808D1474818300068012803D132
:1038F000600201D507F0EEF941481C30006801284C
:1039000008D140481C300068012803D1200201D5AD
:1039100007F0E1F93C4DD5F81003012807D1D5F89F
:103920001803012803D1E00101D507F0A9F9D5F862
:103930001403012807D1D5F81C03012803D1A001E5
:1039400001D507F09EF9D5F89003012807D1D5F8E5
:103950009803012803D1600101D507F093F9D5F848
:103960009403012807D1D5F89C03012803D1200135
:1039700001D507F088F925480068012808D12348B7
:1039800008300068012803D1E00001D507F07CF978
:103990001E48001D0068012808D11C480C30006832
:1039A000012803D1A00001D507F06FF9184800687D
:1039B000012808D11648001D0068012803D16000C5
:1039C00001D507F063F9124814300068012808D1C6
:1039D0000F4818300068012803D1002C01DA07F0E5
:1039E00059F9BFF34F8F70BD6C12054080283042EB
:1039F000802C304200007042100470422009704256
:103A000080A8304280AC3042008070421084704206
:103A10002089704270B5D7480468D74800680128EB
:103A200007D1D6480068012803D1E00701D007F08C
:103A300057F9D148001D0068012808D1CF48001D62
:103A40000068012803D1A00701D507F04AF9CA4848
:103A500008300068012808D1C848083000680128EB
:103A600003D1600701D507F03DF9C3480C30006869
:103A7000012808D1C1480C300068012803D1200773
:103A800001D507F030F9BC4810300068012808D192
:103A9000BA4810300068012803D1E00601D507F0CC
:103AA00023F9B54814300068012808D1B348143010
:103AB0000068012803D1A00601D507F016F9AE4829
:103AC00018300068012808D1AC4818300068012877
:103AD00003D1600601D507F00AF9A7481C30006839
:103AE000012808D1A5481C300068012803D1200610
:103AF00001D507F0FDF8A24DD5F81003012807D134
:103B0000D5F81803012803D1E00501D507F0C3F863
:103B1000D5F81403012807D1D5F81C03012803D1D7
:103B2000A00501D507F0B8F8D5F89003012807D112
:103B3000D5F89803012803D1600501D507F0ADF849
:103B4000D5F89403012807D1D5F89C03012803D1A7
:103B5000200501D507F0A2F88A480068012808D19D
:103B6000884808300068012803D1E00401D507F037
:103B700096F88448001D0068012808D181480C305F
:103B80000068012803D1A00401D507F089F87E4818
:103B90000068012808D17C48001D0068012803D175
:103BA000600401D507F07DF87748143000680128DB
:103BB00008D1754818300068012803D1200401D5C8
:103BC00007F073F871480068012807D17048006851
:103BD000012803D1E00301D507F06EF86B482030CF
:103BE0000068012808D16A48001D0068012803D137
:103BF000200301D507F065F86448243000680128E7
:103C000008D1634808300068012803D1200301D59A
:103C100007F055F85D4828300068012808D15C4855
:103C20000C300068012803D1E00201D507F04AF802
:103C300056482C300068012808D1554810300068DB
:103C4000012803D1E00201D507F03AF85148006895
:103C500040B9504810300068012803D1A00201D5B6
:103C600007F00AF84B48001D006840B94948203069
:103C70000068012803D1600201D506F0FEFF454827
:103C80000830006840B9434830300068012803D14B
:103C9000200201D506F0F2FF3F480068012807D155
:103CA0003E480068012803D1E00101D507F011F872
:103CB000394820300068012808D13848001D0068C4
:103CC000012803D1200101D507F008F8324824303B
:103CD0000068012808D1314808300068012803D164
:103CE000200101D506F0F8FF2B4828300068012894
:103CF00008D12A480C300068012803D1E00001D522
:103D000006F0EDFF24482C300068012808D1234834
:103D100010300068012803D1E00001D506F0DDFF76
:103D20001F48006840B91E4810300068012803D1C0
:103D3000A00001D506F0ABFF1948001D006840B98E
:103D4000174820300068012803D1600001D506F033
:103D50009FFF13480830006840B9114830300068B0
:103D6000012803D1002C01DA06F093FFBFF34F8F37
:103D700070BD00007012054080283142802C314215
:103D8000000071421004714220097142A0283042A3
:103D9000A02C304280147042A0A83042A0AC304227
:103DA0008094704210B591480468914800680128D9
:103DB00007D190480068012803D1E00701D006F040
:103DC00095FF8B4820300068012808D18948001DE4
:103DD0000068012803D1200701D506F08CFF844834
:103DE00024300068012808D1824808300068012882
:103DF00003D1200701D506F07CFF7D4828300068FC
:103E0000012808D17B480C300068012803D1E00666
:103E100001D506F071FF76482C300068012808D1E2
:103E2000744810300068012803D1E00601D506F07F
:103E300061FF7148006840B96F4810300068012880
:103E400003D1A00601D506F02DFF6B48001D0068C8
:103E500040B9694820300068012803D1600601D5C7
:103E600006F021FF64480830006840B962483030ED
:103E70000068012803D1200601D506F015FF5F4830
:103E80000068012807D15E480068012803D1E003DB
:103E900001D506F032FF5948001D0068012808D1FD
:103EA0005748001D0068012803D1A00301D506F082
:103EB00025FF524808300068012808D150480830D2
:103EC0000068012803D1600301D506F018FF4B48B4
:103ED0000C300068012808D149480C3000680128DE
:103EE00003D1200301D506F00BFF444810300068D1
:103EF000012808D1424810300068012803D1E002AF
:103F000001D506F0FEFE3D4814300068012808D1B6
:103F10003B4814300068012803D1A00201D506F007
:103F2000F1FE364818300068012808D134481830AE
:103F30000068012803D1600201D506F0E4FE2F4895
:103F40001C300068012808D12D481C300068012869
:103F500003D1200201D506F0D7FE284820300068A2
:103F6000012808D1264820300068012803D1E0014B
:103F700001D506F0CAFE214840300068012808D16A
:103F80001F4824300068012803D1200101D506F024
:103F9000BFFE1A4844300068012808D1184828306C
:103FA0000068012803D1200101D506F0AFFE1348B7
:103FB00048300068012808D111482C3000680128D9
:103FC00003D1E00001D506F0A4FE0C484C30006897
:103FD000012808D10A4830300068012803D1E000E8
:103FE00001D506F094FEBFF34F8F10BD741205404B
:103FF000A0283142A02C31428014714280A8314265
:1040000080AC314270B5D6480468D64800680128B3
:1040100007D1D5480068012803D1E00701D006F098
:1040200079FED048001D0068012808D1CE48001D47
:104030000068012803D1A00701D506F06CFEC9482D
:1040400008300068012808D1C748083000680128F6
:1040500003D1600701D506F05FFEC2480C3000684E
:10406000012808D1C0480C300068012803D120077E
:1040700001D506F052FEBB4810300068012808D177
:10408000B94810300068012803D1E00601D506F0D8
:1040900045FEB44814300068012808D1B2481430F5
:1040A0000068012803D1A00601D506F038FEAD480E
:1040B00018300068012808D1AB4818300068012882
:1040C00003D1600601D506F02BFEA6481C3000681F
:1040D000012808D1A4481C300068012803D120061B
:1040E00001D506F01EFE9F4820300068012808D147
:1040F0009D4820300068012803D1E00501D506F075
:1041000011FE984840300068012808D196482430B4
:104110000068012803D1200501D506F006FE91486C
:1041200044300068012808D18F48283000680128F1
:1041300003D1200501D506F0F6FD8A484830006815
:10414000012808D188482C300068012803D1E004F8
:1041500001D506F0EBFD83484C300068012808D1FA
:10416000814830300068012803D1E00401D506F011
:10417000DBFD7E4D286B012806D1A86B012803D1F9
:10418000A00401D506F004FE686B012806D1E86B97
:10419000012803D1600401D506F0FBFD74490888AD
:1041A00089890840000703D0200401D506F0EFFDFF
:1041B00070480068012807D16F480068012803D1C2
:1041C000E00301D506F0B3FD6A48001D0068012830
:1041D00008D16948001D0068012803D1A00301D55A
:1041E00006F0A6FD634808300068012808D162483F
:1041F00008300068012803D1600301D506F099FD5D
:104200005C480C300068012808D15B480C3000681D
:10421000012803D1200301D506F08CFD554810304C
:104220000068012808D1544810300068012803D1E3
:10423000E00201D506F07FFD4E48143000680128E9
:1042400008D14D4814300068012803D1A00201D5DF
:1042500006F072FD474818300068012808D146482A
:1042600018300068012803D1600201D506F065FD11
:1042700040481C300068012808D13F481C300068C5
:10428000012803D1200201D506F058FD394820301D
:104290000068012808D1384820300068012803D17F
:1042A000E00101D506F04BFD32484030006801289E
:1042B00008D1314824300068012803D1200101D5FC
:1042C00006F040FD2B4844300068012808D12A48F8
:1042D00028300068012803D1200101D506F030FD07
:1042E000244848300068012808D123482C30006851
:1042F000012803D1E00001D506F025FD1D484C3012
:104300000068012808D11C4830300068012803D11A
:10431000E00001D506F015FD184D286B012806D1E7
:10432000A86B012803D1A00001D506F034FD686B0D
:10433000012806D1E86B012803D1600001D506F001
:104340002BFD0F4800880E490C31098808400007F2
:1043500003D0002C01DA06F01DFDBFF34F8F70BDB6
:104360007812054080283242802C3242001074427C
:1043700090A0034080A8324280AC32420090744248
:1043800090A4034070B5D7480468D7480068012856
:1043900007D1D6480068012803D1E00701D006F014
:1043A000D3FCD148001D0068012808D1CF48001D6A
:1043B0000068012803D1A00701D506F0C6FCCA4851
:1043C00008300068012808D1C84808300068012872
:1043D00003D1600701D506F0B9FCC3480C30006872
:1043E000012808D1C1480C300068012803D12007FA
:1043F00001D506F0ACFCBC4810300068012808D19B
:10440000BA4810300068012803D1E00601D506F053
:104410009FFCB54814300068012808D1B348143017
:104420000068012803D1A00601D506F092FCAE4831
:1044300018300068012808D1AC48183000680128FD
:1044400003D1600601D506F085FCA7481C30006842
:10445000012808D1A5481C300068012803D1200696
:1044600001D506F078FCA04820300068012808D16A
:104470009E4820300068012803D1E00501D506F0F0
:104480006BFC994840300068012808D197482430D7
:104490000068012803D1200501D506F060FC924890
:1044A00044300068012808D190482830006801286D
:1044B00003D1200501D506F050FC8B484830006838
:1044C000012808D189482C300068012803D1E00474
:1044D00001D506F045FC84484C300068012808D11D
:1044E000824830300068012803D1E00401D506F08D
:1044F00035FC7F4D286B012806D1A86B012803D11C
:10450000A00401D506F04AFC686B012806D1E86BCF
:10451000012803D1600401D506F041FC75480188EB
:1045200074480C3000880140080703D0200401D5EE
:1045300006F033FC70480068012807D16F48006816
:10454000012803D1E00301D506F00BFC6A48001DE9
:104550000068012808D16948001D0068012803D1BE
:10456000A00301D506F0FEFB63480830006801286F
:1045700008D1624808300068012803D1600301D5E2
:1045800006F0F1FB5C480C300068012808D15B485C
:104590000C300068012803D1200301D506F0E4FBAC
:1045A000554810300068012808D154481030006880
:1045B000012803D1E00201D506F0D7FB4E481430A4
:1045C0000068012808D14D4814300068012803D143
:1045D000A00201D506F0CAFB474818300068012840
:1045E00008D1464818300068012803D1600201D57F
:1045F00006F0BDFB40481C300068012808D13F4848
:104600001C300068012803D1200201D506F0B0FB60
:10461000394820300068012808D138482030006827
:10462000012803D1E00101D506F0A3FB3248403058
:104630000068012808D1314824300068012803D1DE
:10464000200101D506F098FB2B4844300068012872
:1046500008D12A4828300068012803D1200101D55B
:1046600006F088FB244848300068012808D1234818
:104670002C300068012803D1E00001D506F07DFB55
:104680001D484C300068012808D11C4830300068B3
:10469000012803D1E00001D506F06DFB184D286B11
:1046A000012806D1A86B012803D1A00001D506F08E
:1046B00078FB686B012806D1E86B012803D1600004
:1046C00001D506F06FFB0F4800880E490C310988B0
:1046D0000840000703D0002C01DA06F061FBBFF3AD
:1046E0004F8F70BD7C12054080283342802C3342AE
:1046F0000010754290A8034080A8334280AC33423A
:104700000090754290AC034070B59B4804689B488C
:10471000006840F60E752840984908390968294014
:10472000084203D0E00701D0FDF7BAF893482030E3
:10473000006828409149183109682940084203D08F
:10474000A00701D5FDF7ADF88C484030006828403F
:104750008A49383109682940084203D0600701D5E9
:10476000FDF7A0F88548603000682840834958313B
:1047700009682940084203D0200701D5FDF793F8C6
:104780007E488030006828407C497831096829409B
:10479000084203D0E00601D5FDF786F87748A0303F
:1047A000006828407549983109682940084203D0BB
:1047B000A00601D5FDF779F87048C03000682840A0
:1047C0006E49B83109682940084203D0600601D516
:1047D000FDF76CF86A4DD5F8940101280FD16948AE
:1047E000006800F00B0018B1E00401D506F010FCE1
:1047F0006869012803D1A00401D506F00AFCD5F8A8
:104800009C01012806D1E869012803D1600401D583
:1048100006F002FCD5F89801012806D1A869012804
:1048200003D1200401D506F0F6FBD5F88401012858
:1048300006D1286A012803D1E00301D506F0EAFB7E
:10484000514DD5F8940101280FD15048006800F06F
:104850000B0018B1A00301D506F0DFFB6869012841
:1048600003D1600301D506F0D9FBD5F89C010128DE
:1048700006D1E869012803D1200301D506F0D1FB58
:10488000D5F89801012806D1A869012803D1E002D2
:1048900001D506F0C5FBD5F88401012806D1286AA8
:1048A000012803D1A00201D506F0B9FB384DD5F897
:1048B000A800012807D1D5F89C02012803D1600285
:1048C00001D505F079F9D5F8A400012807D1D5F86C
:1048D0009402012803D1200201D505F06EF9D5F824
:1048E000AC00012806D1D5F8840218B9E00101D541
:1048F00005F051F9D5F8A000012808D125484069F4
:1049000000F01D0018B1A00101D505F043F9224DBA
:10491000D5F8A800012807D1D5F89C02012803D1B9
:10492000200101D505F04CF9D5F8A400012807D1E4
:10493000D5F89402012803D1E00001D505F041F932
:10494000D5F8AC00012806D1D5F8840218B9A0002A
:1049500001D505F034F9D5F8A000012808D10F4899
:10496000006800F01D0018B1600001D505F026F9BF
:10497000BFF34F8F70BD000080120540147C0140D2
:104980000080394200CC014000003A4200D0014092
:104990000000384200C001400080384214C4014089
:1049A00070B5C3480468C34D286B012806D1A86BB5
:1049B000012803D1E00701D006F0F6F9686B012861
:1049C00006D1E86B012803D1A00701D506F0EDF967
:1049D000B949088889890840000703D0600701D5D4
:1049E00006F0E1F9B54D286B012806D1A86B012826
:1049F00003D1200701D506F0DAF9686B012806D14A
:104A0000E86B012803D1E00601D506F0D1F9AC48E6
:104A10000088AB490C3109880840000703D0A00684
:104A200001D506F0C3F9A74D286B012806D1A86B64
:104A3000012803D1600601D506F0BCF9686B012896
:104A400006D1E86B012803D1200601D506F0B3F9A1
:104A50009D4801889C480C3000880140080703D01D
:104A6000E00501D506F0A5F9984D286B012806D17F
:104A7000A86B012803D1A00501D506F09EF9686B4B
:104A8000012806D1E86B012803D1600501D506F0A5
:104A900095F98F4800888E490C3109880840000735
:104AA00003D0200501D506F087F98A4DD5F8940189
:104AB00001280FD18848006800F00B0018B1E0040D
:104AC00001D506F0AFFA6869012803D1A00401D529
:104AD00006F0A9FAD5F89C01012806D1E869012859
:104AE00003D1600401D506F0A0FAD5F89801012899
:104AF00006D1A869012803D1200401D506F094FA53
:104B0000764DD5F8940101280FD17548006800F062
:104B10000B0018B1E00301D506F088FA6869012896
:104B200003D1A00301D506F082FAD5F89C01012833
:104B300006D1E869012803D1600301D506F079FAAE
:104B4000D5F89801012806D1A869012803D12003CE
:104B500001D506F06DFAE00221D562494A780B785A
:104B60008878C97E8D0618D4D50716D11A40520808
:104B700013D1820701D5C2070FD1020701D5420721
:104B80000BD4820601D5C00607D4C80601D5080794
:104B900003D4080603D5480601D5FCF71DF8A0028A
:104BA00021D551494A780B788878C97E8D0618D46A
:104BB000D50716D11A40520813D1820701D5C20772
:104BC0000FD1020701D542070BD4820601D5C006DA
:104BD00007D4C80601D5080703D4080603D548063C
:104BE00001D5FBF7FAFF414DD5F8A800012807D100
:104BF000D5F89C02012803D1600201D504F0E4FF3E
:104C0000D5F8A400012807D1D5F89402012803D1D2
:104C1000200201D504F0D9FFD5F8AC00012806D157
:104C2000D5F8840218B9E00101D504F0CCFFD5F81D
:104C3000A000012808D12E48006800F01D0018B11E
:104C4000A00101D504F0BEFF2A4DD5F8A800012827
:104C500007D1D5F89C02012803D1200101D504F029
:104C6000B7FFD5F8A400012807D1D5F89402012890
:104C700003D1E00001D504F0ACFFD5F8AC00012869
:104C800006D1D5F8840218B9A00001D504F09FFF21
:104C9000D5F8A000012808D11748406900F01D0090
:104CA00018B1600001D504F091FFBFF34F8F70BDC4
:104CB0008412054000104C429060024000904C422B
:104CC0009064024000104D429068024000904D42B6
:104CD000906C024000803A4200D4014000003B4208
:104CE00000D80140A4900040A48007400000394251
:104CF00014C80140000040420000024070B5B048B6
:104D00000468B04D286B012806D1A86B012803D197
:104D1000E00701D006F054F8686B012806D1E86B73
:104D2000012803D1A00701D506F04BF8A649088851
:104D300089890840000703D0600701D506F03FF8D5
:104D4000A24D286B012806D1A86B012803D12007AA
:104D500001D506F014F8686B012806D1E86B01282C
:104D600003D1E00601D506F00BF899480088984970
:104D70000C3109880840000703D0A00601D505F0D2
:104D8000FDFF944D286B012806D1A86B012803D1A3
:104D9000600601D505F0F6FF686B012806D1E86BC7
:104DA000012803D1200601D505F0EDFF8A480088CF
:104DB00089490C3109880840000703D0E00501D576
:104DC00005F0DFFF854D286B012806D1A86B01286F
:104DD00003D1A00501D505F0D8FF686B012806D1E5
:104DE000E86B012803D1600501D505F0CFFF7C48B1
:104DF00000887B490C3109880840000703D0200552
:104E000001D505F0C1FF774DD5F81002012806D174
:104E1000A86A012803D1E00401D506F00BF9D5F802
:104E20002002012806D1686A012803D1E00401D5D7
:104E300006F001F9D5F8940101280FD16A480068FD
:104E400000F00B0018B1A00401D506F0F5F8686970
:104E5000012803D1600401D506F0EFF8D5F89C01D4
:104E6000012806D1E869012803D1200401D506F004
:104E7000E6F8D5F89801012806D1A869012803D1E0
:104E8000E00301D506F0DAF8584DD5F89401012871
:104E90000FD15748006800F00B0018B1A00301D5EE
:104EA00006F0CEF86869012803D1600301D506F049
:104EB000C8F8D5F89C01012806D1E869012803D17A
:104EC000200301D506F0C0F8D5F89801012806D1D5
:104ED000A869012803D1E00201D506F0B4F8D5F89D
:104EE0008401012806D1286A012803D1A00201D536
:104EF00006F0A8F83F4DD5F8A800012807D1D5F84D
:104F00009C02012803D1600201D504F065FED5F8AA
:104F1000A400012807D1D5F89402012803D120026A
:104F200001D504F05AFED5F8AC00012806D1D5F819
:104F3000840218B9E00101D504F04DFED5F8A000B7
:104F4000012808D12C48006800F01D0018B1A0010C
:104F500001D504F03FFE294DD5F8A800012807D15E
:104F6000D5F89C02012803D1200101D504F038FEB8
:104F7000D5F8A400012807D1D5F89402012803D15F
:104F8000E00001D504F02DFED5F8AC00012806D1D3
:104F9000D5F8840218B9A00001D504F020FED5F898
:104FA000A000012808D11648006800F01D0018B1C3
:104FB000600001D504F012FEBFF34F8F70BD0000FA
:104FC0008812054000104E429070024000904E4200
:104FD0009074024000104F429078024000904F427F
:104FE000907C024000803B4200DC01400080414256
:104FF000000C024000804042140402400000414284
:10500000140802402DE9F05F99480468994D6868DA
:10501000012807D1D5F88000012803D1E00701D08D
:10502000FCF74FFFE868012807D1D5F88400012874
:1050300003D1A00701D5FCF743FF2869012808D157
:105040008D48806800F0030018B1600701D5FCF7B7
:1050500036FF8A4D6868012807D1D5F880000128FD
:1050600003D1200701D5FCF72FFFE868012807D1FD
:10507000D5F88400012803D1E00601D5FCF723FF11
:105080002869012808D17E48006800F0030018B1A3
:10509000A00601D5FCF716FF7A4DD5F8940101283A
:1050A0000FD17948006800F00B0018B1600601D5F7
:1050B00005F0CBFF6869012803D1200601D505F072
:1050C000C5FFD5F89C01012806D1E869012803D164
:1050D000E00501D505F0BDFFD5F89801012806D1FE
:1050E000A869012803D1A00501D505F0B1FFD5F8C5
:1050F0008401012806D1286A012803D1600501D561
:1051000005F0A5FF614DD5F8940101280FD1604845
:10511000006800F00B0018B1200501D505F09AFFDA
:105120006869012803D1E00401D505F094FFD5F8A2
:105130009C01012806D1E869012803D1A00401D50A
:1051400005F08BFFD5F89801012806D1A869012840
:1051500003D1600401D505F07FFF4E4800680128A7
:105160000BD14D4988694D4A1040496911400842A8
:1051700003D0200401D506F0EDFBE00240F2F71762
:1051800040F27F1611D54648018E3940028F3A40D1
:10519000458F3540114201D002F09BFB4148006829
:1051A000012802D10DB102F093FB200215D53E4833
:1051B000008838403C490831098839403A4A0A3267
:1051C00015883540084201D002F085FB3748006859
:1051D000012802D10DB102F07DFB35480168354B45
:1051E00019404268344D2A40D0F808C00CEA030C3C
:1051F000C3682B40314FD7F800B03048803805687D
:105200002E48183006682D4868380068DFF8B080EE
:10521000D8F810A0DFF8AC90D9F8148008F4C038A2
:10522000D9F81C9009F4C0395FEAC40E10D531EAF0
:105230000C010BD19A4309D135EA0B0506D1B043D5
:1052400010EA0A0F02D118EA090F01D0FCF72FFB70
:10525000386840B9194880380068012803D1A00097
:1052600001D5FCF725FBBFF34F8FBDE8F09F000091
:105270008C12054000003C4200E0014000803C42AE
:1052800008E4014000004242001002400080424217
:10529000001402400001004300000840FBFC7CF7C2
:1052A000000007403C06E042308407403C86F04264
:1052B00004010640F8000E000C006F008C07C0428D
:1052C00000E0C0420010064070B5A6480468A64D34
:1052D0006868012807D1D5F88000012803D1E007CC
:1052E00001D0FCF7F4FDE868012807D1D5F8840067
:1052F000012803D1A00701D5FCF7E8FD28690128A2
:1053000008D19A48806800F0030018B1600701D501
:10531000FCF7DBFD964D6868012807D1D5F88000C1
:10532000012803D1200701D5FCF7D4FDE868012846
:1053300007D1D5F88400012803D1E00601D5FCF798
:10534000C8FD2869012808D18A48006800F00300D8
:1053500018B1A00601D5FCF7BBFD874DD5F8940127
:1053600001280FD18548006800F00B0018B16006D5
:1053700001D505F073FE6869012803D1200601D527
:1053800005F06DFED5F89C01012806D1E8690128D9
:1053900003D1E00501D505F064FED5F89801012898
:1053A00006D1A869012803D1A00501D505F058FE52
:1053B000734DD5F81002012806D1A86A012803D13F
:1053C000600501D505F01EFED5F82002012806D1A2
:1053D000686A012803D1600501D505F014FED5F8EF
:1053E000940101280FD16748006800F00B0018B144
:1053F000200501D505F008FE6869012803D1E00405
:1054000001D505F002FED5F89C01012806D1E86916
:10541000012803D1A00401D505F0F9FDD5F89801C4
:10542000012806D1A869012803D1600401D505F03F
:10543000EDFD554DD5F89800012807D1D5F8980312
:10544000012803D1E00301D5FCF722FDD5F89C002B
:10545000012807D1D5F89C03012803D1A00301D569
:10546000FCF718FDD5F88C00012807D1D5F88C037E
:10547000012803D1600301D5FCF70BFD43494868BF
:10548000434E3040C9693140084203D0200301D562
:10549000FCF7FDFC3F4DD5F89800012807D1D5F861
:1054A0009803012803D1E00201D5FCF7F5FCD5F8FB
:1054B0009C00012807D1D5F89C03012803D1A00244
:1054C00001D5FCF7EBFCD5F88C00012807D1D5F805
:1054D0008C03012803D1600201D5FCF7DEFC2E48C5
:1054E000006830402C49183109683140084203D027
:1054F000200201D5FCF7CFFC284DD5F898000128F3
:1055000007D1D5F89803012803D1E00101D5FCF7B4
:10551000C7FCD5F89C00012807D1D5F89C030128C9
:1055200003D1A00101D5FCF7BDFCD5F88C00012802
:1055300007D1D5F88C03012803D1600101D5FCF710
:10554000B0FC1748006830401549183109683140EF
:10555000084203D0200101D5FCF7A1FCBFF34F8F17
:1055600070BD00009012054000004442002002403F
:1055700000804442082402400000434200180240D8
:1055800000804342001C024000009C4200E00440B6
:105590001752F00000809C4204E4044000009D4249
:1055A00004E8044070B57B4804687B4DD5F898004A
:1055B000012807D1D5F89803012803D1E00701D0CD
:1055C000FCF772FCD5F89C00012807D1D5F89C03A4
:1055D000012803D1A00701D5FCF768FCD5F88C00A1
:1055E000012807D1D5F88C03012803D1600701D524
:1055F000FCF75BFC69480068694E30406749183128
:1056000009683140084203D0200701D5FCF74BFC64
:10561000644DD5F89800012807D1D5F898030128E2
:1056200003D1E00601D5FCF743FCD5F89C00012826
:1056300007D1D5F89C03012803D1A00601D5FCF7BA
:1056400039FCD5F88C00012807D1D5F88C03012846
:1056500003D1600601D5FCF72CFC53494868304063
:10566000C9693140084203D0200601D5FCF71FFC70
:105670004E4DD5F89800012807D1D5F89803012898
:1056800003D1E00501D5FCF717FCD5F89C000128F3
:1056900007D1D5F89C03012803D1A00501D5FCF75B
:1056A0000DFCD5F88C00012807D1D5F88C03012812
:1056B00003D1600501D5FCF700FC3D48006830408F
:1056C0003B49183109683140084203D0200501D513
:1056D000FCF7F1FB374DD5F80003012807D1364818
:1056E0000068012803D1A00401D500F073FDD5F8AE
:1056F0001003012808D1304810300068012803D178
:10570000600401D500F067FD2C4DD5F80003012899
:1057100007D1D5F88003012803D1E00301D5FCF7B8
:105720007EF9D5F80403012807D1D5F884030128B0
:1057300003D1A00301D5FCF771F9D5F808030128BE
:1057400007D1D5F88803012803D1600301D5FCF700
:1057500067F91B48406800F4403018B1200301D5B8
:1057600006F0FCF8174DA86901280FD1D5F80801FB
:10577000012803D1E00201D5FBF757FED5F804015B
:10578000012803D1E00201D5FBF74EFEBFF34F8F96
:1057900070BD00009412054000809D4204EC04405E
:1057A0001752F00000009E4200F0044000809E422C
:1057B00004F4044000809942849E99420080904203
:1057C000009004400080934270B56F4804686F48B1
:1057D0000068012808D16D4820380068012803D1ED
:1057E000E00701D0FBF7ECF96848001D00680128CC
:1057F00008D166481C380068012803D1A00701D5EC
:10580000FBF7DFF962480068012808D160483C30A6
:105810000068012803D1600701D5FAF7EFFD5C4865
:1058200010300068012817D15A48008800F44075EC
:10583000574840300068012804D11DB9200701D520
:10584000FAF7DDFD52484C300068012804D11DB143
:10585000200701D5FBF7B3F94F480068012808D1AC
:105860004D4820380068012803D1E00601D5FBF738
:10587000ACF94948001D0068012808D146481C3889
:105880000068012803D1A00601D5FBF79FF9434822
:105890000068012808D141483C300068012803D144
:1058A000600601D5FBF78EF93C48103000680128EE
:1058B00017D13B48008800F44075384840300068F4
:1058C000012804D11DB9200601D5FBF77CF9334826
:1058D0004C300068012804D11DB1200601D5FBF72A
:1058E00073F930480068012808D12E482038006834
:1058F000012803D1E00501D5FBF76CF92948001D0B
:105900000068012808D127481C380068012803D105
:10591000A00501D5FBF75FF923480068012808D1ED
:1059200021483C300068012803D1600501D5FBF710
:105930004EF91D4810300068012817D11B48008817
:1059400000F44075184840300068012804D11DB9A2
:10595000200501D5FBF73CF913484C3000680128BD
:1059600004D11DB1200501D5FBF733F9E00307D5BC
:105970000F48806B4FF65371084201D000F089F850
:10598000BFF34F8F70BD000098120540A008804201
:1059900004148042A0000440A08880420494804205
:1059A000A0040440A008814204148142A0080440DD
:1059B00000801088C10706D0164940F223120A6001
:1059C00043F210220A60810702D51449124A0A6183
:1059D000410703D5124A4AF2015111801149C2060A
:1059E00006D54AF20853B1F8FE231A43A1F8FE2364
:1059F000420606D54AF20353B1F8FE231A43A1F832
:105A0000FE23000605D508497720086006490831BD
:105A100008607047000401400100A5A50080044013
:105A2000FC3B0540004005400408054010B5044615
:105A3000E00702D0114900200860A00702D51149F3
:105A40000F480861600703D50F494FF425400880CF
:105A5000E00603D54AF2085000F0BEFB600603D50D
:105A60004AF2035000F0B8FB200605D5074976201E
:105A7000086006490831086010BD000000040140BC
:105A80000000A5A500800440FC3B0540040805403B
:105A90007047704770B5040300F0D8F800F07AF84A
:105AA0000B4D00202860202004F076F8C4F3074056
:105AB00004F072F8C4F3072004F06EF8E0B204F0CA
:105AC0006BF801202860BDE8704000F063B800006A
:105AD0009000A74210B508F01DFA00F02DF801491A
